:100000000C945C000C9479000C9479000C947900A9
:100010000C9479000C9479000C9479000C9479007C
:100020000C9479000C9479000C9479000C9479006C
:100030000C9479000C9479000C9479000C9479005C
:100040000C94A0000C9479000C9479000C94790025
:100050000C9479000C9479000C9479000C9479003C
:100060000C9479000C947900000000002400270013
:100070002A0000000000250028002B0004040404CE
:100080000404040402020202020203030303030342
:10009000010204081020408001020408102001021F
:1000A00004081020000000080002010000030407FB
:1000B000000000000000000011241FBECFEFD8E0B8
:1000C000DEBFCDBF11E0A0E0B1E0EEEFF3E002C093
:1000D00005900D92AA30B107D9F721E0AAE0B1E06E
:1000E00001C01D92A531B207E1F70E94EA000C940D
:1000F000FD010C9400003FB7F89480910F0190919E
:100100001001A0911101B091120126B5A89B05C064
:100110002F3F19F00196A11DB11D3FBFBA2FA92F86
:10012000982F8827BC01CD01620F711D811D911D83
:1001300042E0660F771F881F991F4A95D1F70895EF
:100140001F920F920FB60F9211242F933F938F930C
:100150009F93AF93BF9380910B0190910C01A0915D
:100160000D01B0910E0130910A0123E0230F2D37CC
:1001700058F50196A11DB11D20930A0180930B0132
:1001800090930C01A0930D01B0930E0180910F018B
:1001900090911001A0911101B09112010196A11D41
:1001A000B11D80930F0190931001A0931101B093A2
:1001B0001201BF91AF919F918F913F912F910F901D
:1001C0000FBE0F901F90189526E8230F0296A11DD1
:1001D000B11DD2CF789484B5826084BD84B581602E
:1001E00084BD85B5826085BD85B5816085BD809102
:1001F0006E00816080936E0010928100809181007A
:100200008260809381008091810081608093810071
:10021000809180008160809380008091B100846033
:100220008093B1008091B00081608093B000809194
:100230007A00846080937A0080917A008260809353
:100240007A0080917A00816080937A0080917A00B0
:10025000806880937A001092C1002AE031E0A0E02B
:10026000B1E08D9190E0FC01E057FF4F449184583C
:100270009F4FFC018491882399F090E0880F991F8B
:10028000FC01E859FF4FC591D491FC01EE58FF4F96
:10029000859194918FB7F894E881E42BE8838FBF20
:1002A0002A173B07F1F610E4C0E0D0E010937C0081
:1002B00080917A00806480937A0080917A0086FD34
:1002C000FCCF909178008091790089279827892721
:1002D0009093140180931301A0E0B1E030E020E09E
:1002E000622F8D9190E0FC01EC55FF4F5491FC0181
:1002F000E057FF4F4491FC01E458FF4FE491EE2397
:1003000039F18091130190911401552359F0533024
:1003100009F459C008F04CC0513009F45AC05230A9
:1003200009F45BC0F0E0EE0FFF1FEE58FF4FE590C1
:10033000F4905FB7F89402C0959587956A95E2F7B7
:10034000F70180FD57C080814095482340835FBFFF
:100350002F5F3F4F2A30310509F0C2CF0E947B004A
:100360006B017C0185E0882E912CA12CB12C0E9480
:100370007B006C197D098E099F09683E73408105D9
:100380009105A8F3F1E08F1A9108A108B10828EEB1
:10039000C20E23E0D21EE11CF11C81149104A104C1
:1003A000B10429F7209709F481CF0E9400007ECF85
:1003B0005730B1F05830D1F0543009F0B3CF5091EC
:1003C00080005F7D03C0509180005F775093800074
:1003D000A9CF54B55F7754BDA5CF54B55F7DFBCF92
:1003E0005091B0005F775093B0009CCF5091B00017
:0E03F0005F7DF9CF8081482BA9CFF894FFCF15
:0A03FE000405060708090A0B0C0DA0
:00000001FF
